:020000040800F2
:1000000038060020A501000813300008FD2A00086A
:1000100011300008550A0008413A000800000000AD
:10002000000000000000000000000000C1310008D6
:10003000570A00080000000015300008C33100080E
:10004000BF010008BF010008BF010008BF01000890
:10005000BF010008BF010008BF010008BF01000880
:10006000BF010008BF010008BF010008BF01000870
:10007000BF010008BF010008BF010008BF01000860
:10008000BF010008BF010008BF010008BF01000850
:10009000BF010008BF010008BF010008BF01000840
:1000A000BF010008B9320008BF010008BF01000805
:1000B000BF0100080000000000000000BF010008B0
:1000C000BF0100080000000000000000BF010008A0
:1000D0000000000001390008BF0100080000000016
:1000E000BF010008BF010008000000000000000080
:1000F0000000000000000000000000000000000000
:10010000000000000000000000000000BF01000827
:100110000000000000000000BF010008BF0100084F
:10012000BF010008BF010008BF010008BF010008AF
:10013000BF010008000000000000000000000000F7
:10014000BF010008BF010008BF010008BF0100088F
:10015000BF010008BF010008BF010008BF0100087F
:10016000BF010008BF010008BF0100080000000037
:10017000BF010008BF0100080000000000000000EF
:10018000BF010008BF010008BF010008DFF810D060
:1001900000F03AFB004800475D430008AFF30080E1
:1001A000380600200648804706480047FEE7FEE77D
:1001B000FEE7FEE7FEE7FEE7FEE7FEE7FEE7FEE717
:1001C000753200088D0100082DE9F05F054600201A
:1001D00092469B4688460646814640241BE02846B8
:1001E00041464746224600F0BAF953465A46C01ADD
:1001F000914110D311461846224600F0A1F92D1A5C
:1002000067EB01084F4622460120002100F098F9D3
:1002100017EB00094E41201EA4F10104DFDC484623
:1002200031462A46434600F000B830BCBDE8C09FC6
:10023000D2B201E000F8012B491EFBD27047002228
:10024000F6E710B513460A4604461946FFF7F0FFD5
:10025000204610BD2DE9FE4F804681EA0300C00F05
:100260000C46009021F0004123F00045B8EB02005D
:10027000A94105D24046214690461C460B460246FF
:1002800023F00040104347D0270DC7F30A00C3F303
:100290000A510290401A019040286BDAC3F3130010
:1002A00040F4801B0098924620B10023D2EB030A51
:1002B00063EB0B0B01985946C0F14002504600F029
:1002C0003FF906460D4650465946019A00F057F947
:1002D00010EB08006141002487EA115284EAE773B9
:1002E0001A4340D0009A62B3019A012A4FEA07529A
:1002F00015DC001B61EB02014FF0004202EA0752DD
:10030000CDE90042001C41F5801132462B4600F039
:100310008EF903B000F045B840462146F9E7001BCE
:1003200061EB0201001C41F5801300185B412018AD
:10033000A2F5001747EB030140EAD570B6196D41ED
:1003400011E06D084FEA360645EAC0754FEA0752DC
:10035000001B61EB0201001C41F5801149084FEAC6
:1003600030000019514132462B4603B000F01CB852
:1003700000F04EB90098012240000023D0EB0202A9
:1003800063EBE073009821464FEAE074B8EB00009D
:1003900061EB0401E9E783F000435BE781F0004192
:1003A00058E730BCBDE8C08F30BCBDE8C04FFFF798
:1003B000DFBF2DE9FE4F81EA030404F0004421F081
:1003C000004100944FF0000B23F0004350EA010479
:1003D0005ED052EA03045BD0C3F30A54C1F30A555A
:1003E0002C44A4F2F3340194A0FB0254C1F3130192
:1003F00041F48011C3F3130343F4801301FB02445F
:1004000000FB034E840A970A44EA815447EA835763
:10041000A4FB076802958D0A05FB07854FEA932C1C
:1004200004FB0C542705029D4FEA065847EA16378D
:10043000B5EB08056EEB070C870E920E47EA8117A5
:1004400042EA8312A7FB0201B6EB0B0164EB000446
:100450002B0D43EA0C335E1844EB1C50DA46514630
:10046000E7FB0201C5F313044FEA0B3343EA1453CD
:100470004FEA0432019C43EA0603A4F10C040294FF
:10048000009CCDE900B400F0D2F803B000F003B84E
:1004900000200146F9E730BCBDE8C08F0EB540F240
:1004A000334102910021CDE900110A460B4600F0CC
:1004B000BEF803B000BD00F0004230F000400AD0AA
:1004C000C10D01F56071C0F3160042EA0151C20886
:1004D00040071143704700200146704701F0004378
:1004E00030B421F0004150EA010206D00A0DA2F515
:1004F0006072C1F31301002A02DC30BC0020704797
:10050000440F44EAC104C100E01830BC00EBC25003
:1005100000F047B830B50B460146002020220124E8
:1005200009E021FA02F59D4205D303FA02F5491BC1
:1005300004FA02F52844151EA2F10102F1DC30BDD7
:10054000202A04DB203A00FA02F100207047914093
:10055000C2F1200320FA03F3194390407047202A88
:1005600004DB203A21FA02F00021704721FA02F35D
:10057000D040C2F120029140084319467047202A1A
:1005800006DBCB17203A41FA02F043EAE07306E0BB
:1005900041FA02F3D040C2F12002914008431946CB
:1005A00070470029A8BF7047401C490008BF20F0D1
:1005B0000100704710B4B0FA80FC00FA0CF050EA69
:1005C000010404BF10BC704749B1CCF1200421FAEA
:1005D00004F411FA0CF118BF012121430843A3EBE5
:1005E0000C01CB1D4FEA00614FEA102042BF0020F2
:1005F00010BC704700EBC35010440029A4BF10BCCE
:100600007047401C490008BF20F0010010BC704733
:1006100010B5141E73F1000408DA401C41F100010A
:1006200092185B411A4301D120F0010010BD2DE961
:10063000F04D92469B4611B1B1FA81F202E0B0FA58
:1006400080F220329046FFF77BFF04460F4640EAD7
:100650000A0041EA0B0153465A46084313D011469B
:1006600053EA010019D0C8F140025046FFF777FF66
:1006700005460E46504659464246FFF761FF08437D
:1006800005D0012004E020463946BDE8F08D002069
:10069000054346EAE0762C4337430A986305E40AAB
:1006A000A0EB08000022FD0A44EA47540A3002D5B4
:1006B00000200146E9E7010510196941DDE9084517
:1006C00000196941BDE8F04DA2E72DE9F04D81EA3E
:1006D000030404F0004B21F0004514464FF0000ADB
:1006E00023F0004150EA050220D054EA01021DD057
:1006F000C5F30A570246C5F31303C1F31300C1F350
:100700000A5640F4801543F48013A7EB0608101B2B
:10071000D64608F2FD3873EB050002D308F1010854
:1007200001E092185B41B8F1000F03DA00200146A6
:10073000BDE8F08D00204FF48011064684460EE09F
:10074000171B73EB050705D3121B63EB0503064369
:100750004CEA010C49084FEA300092185B4150EA1C
:100760000107EDD152EA030012D082EA040083EAC5
:100770000501084305D0101BAB4106D2012200231E
:1007800006E000224FF0004302E06FF00102531038
:100790001AEB06004CEB085110EB0A0041EB0B0181
:1007A000BDE8F04DFFF734BFC1F30A52C1F31301A6
:1007B00040F2FF3341F480119A4202DA00200146F0
:1007C000704740F233439A42A2F2334202DC524273
:1007D000FFF7C5BEFFF7B4BE30B5041E71F10004CB
:1007E00004DB4FF00044404264EB0101141E73F13E
:1007F000000405DB1C464FF00043524263EB040348
:10080000994208BF904230BD064C074D06E0E068B3
:1008100040F0010394E8070098471034AC42F6D347
:10082000FFF7B8FC50440008704400082DE9F0417F
:10083000044600270D46006802F080FA064620684C
:1008400002F078FA304359D02068C1682C4E8901F3
:1008500005D5617E012902D1217E01290BD0022D0F
:100860001DD0206802F06AFAB8B120688168C1F32F
:10087000400169B111E00125224902E08F422ED2E8
:100880007F1C0268D2435206F8D440210160E8E799
:100890008168314041F010018160012D11D0206844
:1008A00002F048FA48B120688168C1F3400121B9DB
:1008B0008168314041F020018160022D08D0032D74
:1008C00004D0042500F0A4FD064613E00C25F9E74A
:1008D0000825F7E700F09CFD801B05280AD9606D0C
:1008E00040F010006065A06D40F00100A06501209F
:1008F000BDE8F081206880682842EBD10020F7E74E
:10090000C0FFFF7F000040A370B504460068816807
:100910008268C1F3400112F0010F24D019BB816835
:1009200001F00D01012910D18168104A1140891C84
:10093000816021680320086000F06AFD05460EE032
:1009400000F066FD401B022809D9606D40F01000E0
:100950006065A06D40F00100A065012070BD2068B9
:100960008068C007ECD1002070BD0000C0FFFF7F91
:1009700070B504460068816811F0010F28D18168C4
:10098000144A114215D18168D5432940491C816020
:1009900000F03EFD064616E0816811F0010F03D11C
:1009A00081682940491C816000F032FD801B0228CB
:1009B00009D9606D40F010006065A06D40F0010045
:1009C000A065012070BD20680168C943C907E3D153
:1009D000002070BD3F00008000B587B01821684638
:1009E000FFF72DFC0A4800900620019000207F218F
:1009F000CDE902010421CDE904106946054800F063
:100A00002BF8002801D072B6FEE707B000BD000049
:100A100000106032B800002010B586B004461821DE
:100A20006846FFF70CFC0620CDE9004000207F213E
:100A3000CDE902010421CDE904106946044800F023
:100A40000BF8002801D072B6FEE706B010BD00001A
:100A5000B8000020FEE770472DE9F84F0027044654
:100A6000009790F85000DFF8B0930D46B846012883
:100A700011D0012684F85060206802F05FF960B15F
:100A8000606D40F0200060655FF0010784F85080E1
:100A9000384600F0D7B90220FBE768680C23052828
:100AA00012D8022807D0032807D0042807D0052829
:100AB00007D0062007E06B6006E0122003E0182054
:100AC00001E04FF480706860D5E90021206803EAF6
:100AD00091131844036B01F01F014FF01F0C0CFA27
:100AE00001FCC2F3846223EA0C038A4013430363CC
:100AF000206802F023F98246206802F01BF95AEAC6
:100B000000001DD1AA682968206802F023F9206836
:100B10006969C268C2F3C102520091402A69042A7D
:100B20000FD000EB82002B68026EDFF8F0C203F0FA
:100B3000F84302EA0C020B431A4342F000410166FB
:100B400072E0002102F0F0F8400320684FF000014D
:100B500072D002F0E9F890FAA0F0B0FA80F12868BB
:100B600042036ED090FAA0F0B0FA80F0814204D136
:100B700000221146206802F0FCF80121206802F0F2
:100B8000D3F8400320684FF001015DD002F0CCF8AB
:100B900090FAA0F0B0FA80F12868420359D090FA98
:100BA000A0F0B0FA80F0814204D100220121206837
:100BB00002F0DFF80221206802F0B6F84003206856
:100BC0004FF0020148D002F0AFF890FAA0F0B0FA6E
:100BD00080F12868420344D090FAA0F0B0FA80F087
:100BE000814204D100220221206802F0C2F80321D0
:100BF000206802F099F8400320684FF0030133D0D9
:100C000002F092F890FAA0F0B0FA80F1286842035E
:100C10002FD090FAA0F0B0FA80F0814204D10022E7
:100C20000321206802F0A5F82068816811F0010F07
:100C300022D0ACE000E004E002F076F8C0F384617A
:100C40008DE7C0F3846091E702F06EF8C0F3846131
:100C5000A2E7C0F38460A6E702F066F8C0F38461FF
:100C6000B7E7C0F38460BBE702F05EF8C0F38461CD
:100C7000CCE7C0F38460D0E72A7B296850F8B03F06
:100C8000C1F3120C23EA0C0302F0180C644A22FA96
:100C90000CF20A4013430360E968494577D128689C
:100CA00041031CD090FAA0F1B1FA81F1491C01F086
:100CB0001F0109294FEA403132D8002912D000BF64
:100CC00090FAA0F1B1FA81F101F1010101F01F01E7
:100CD00006FA01F609D100BFC0F3846109E0C0F350
:100CE0008461E3E7C0F38461EEE790FAA0F1B1FA22
:100CF00081F101F1010101F01F0146EA816102D198
:100D0000C0F3846003E090FAA0F0B0FA80F000F144
:100D1000010000F01F0000EB400041EA005132E00A
:100D200000290ED090FAA0F1B1FA81F101F1010190
:100D300001F01F0106FA01F606D100BFC0F384617D
:100D400006E0C0F38461F1E790FAA0F1B1FA81F115
:100D500001F1010101F01F0146EA816102D1C0F3F6
:100D6000846003E090FAA0F0B0FA80F000F1010096
:100D700000F01F002B4A00EB400002EB005041EA5C
:100D8000000141F00071AA68206801F0E3FF2648E5
:100D90002A6802423FF47AAE24488168244D254BEC
:100DA00001F0E071AA421AD10D0218D422689A42C9
:100DB0007FF46CAE826841F4000122F0E0720A43D5
:100DC00082601D481D490068B0FBF1F000EB400057
:100DD000800000E0401E00900028FBD156E6184D30
:100DE000AA4207D1CD0105D422689A42F6D141F03A
:100DF00080710AE06FF00045EA42EFD14A02EDD47B
:100E000022689A42EAD141F48001826822F0E072BD
:100E10000A4382603AE6000000007F4000F0FF03D2
:100E2000FFFF0700000020FE0000088000030450C0
:100E3000000052C7000004506C000020400D030069
:100E4000000084CB18BCBDE8E08F0068006C7047E0
:100E5000F8B54FF0000504002E46009502D0606DF5
:100E600010B107E00120F8BD204600F0C7F8A665E4
:100E700084F8506020688168C1F3407119B18168BD
:100E8000564A1140816020688168C1F3007179B9C8
:100E90008168534A114041F0805181605148524964
:100EA0000068B0FBF1F000E0401E00900028FBD18C
:100EB00020688168C1F3007141B9616D41F0100192
:100EC0006165A16D41F00101A165012501F036FFC9
:100ED000616DC90600D430B1606D40F010006065EE
:100EE00001252846F8BD606D20F4807040F00200B6
:100EF00060652068806810F0010F0BD13B48806866
:100F000010F0010F06D13A486168826822F47C1221
:100F10000A438260E168606B627E0843A16841EA2F
:100F20004231084394F8201040EA0140012904D1DD
:100F3000A18C304A02EB41410843A16A29B101F476
:100F40007071E26A014342EA01002168CA682A4BD3
:100F50001A400243CA60206801F0F0FE064620688D
:100F600001F0E8FE304315D1207E94F83010800364
:100F700040EA41022068C16844F2020399431143E8
:100F8000C16094F8380001280CD02068016921F074
:100F900001010161206901282068016B21F00F0126
:100FA00011D013E0D4E90F010843D4E91112114321
:100FB000084321680A6940F2FC739A43104340F0E9
:100FC00001000861E6E7E269521E11430163606DAA
:100FD00020F0020040F00100606582E7C0FFFF5F83
:100FE000C0FFFF7F6C000020400D03000000045094
:100FF000000304500000FEFF07C0F0FF30B587B0CB
:10100000044614216846FFF71AF9184920688842F7
:1010100029D11748C16C41F40051C164C16C01F47D
:1010200000510591C16C41F00101C164C16C01F036
:1010300001010591C16C41F00201C164C06C0B2437
:1010400000F002000590F82000258DE83100694687
:101050004FF0904000F000F903208DE83100694620
:10106000044800F0F9F807B030BD0000000004505B
:1010700000100240000400482DE9F0410446406998
:101080000D4608280AD02068C068C00708D0606DE7
:1010900040F0200060650120BDE8F081082600E0F6
:1010A000042600F0B5F9074607E0681C05D000F0FB
:1010B000AFF9C01BA8420FD875B120680068304254
:1010C000F3D0606D40F400706065206801F03AFE76
:1010D000D0B1607E48B117E0606D40F004006065FB
:1010E000002084F850000320D6E72068006800073D
:1010F0000AD5606D20F480706065606DC00403D413
:10110000606D40F0010060652068C168082E05D060
:10111000490401D40C2101600020BDE70821FAE751
:1011200010B50446006801F009FE10B1022108461E
:1011300010BD94F8500001280CD0012084F8500014
:101140002046FFF715FC01004FF0000004D084F8A2
:101150005000ECE7022010BD626D40F601639A4337
:1011600042F480726265626DD20404D5A26D22F0F1
:101170000602A26500E0A06523681C221A6084F8BC
:1011800050002068C268920105D5626D22F40052B9
:1011900042F4805262658268024B1A40121D8260DE
:1011A000C5E70000C0FFFF7F10B5044690F850006F
:1011B000012808D0012084F8500003212046FFF7C1
:1011C00035FB10B10BE0022010BD2046FFF79CFB61
:1011D00028B9616D21F4885141F001016165002158
:1011E00084F8501010BD10B590F825100024022985
:1011F00003D00421C16301241AE001680A6822F0C7
:101200000E020A6001680A6822F001020A6090F882
:101210004410036C01F01C02012101FA02F25A6031
:1012200080F82510002180F82410816B01B18847D7
:10123000204610BD70B5044600F0EAF80546601C73
:1012400002D004480078044400F0E2F8401BA042B9
:10125000FAD370BD600000202DE9FC4FDFF880A1BB
:10126000002301250AF1040B03244FF00F0C0BF1AE
:10127000040EAEE005FA03F632406FD04F68012F3E
:1012800005D0022F03D0112F01D0122F17D1D0F883
:1012900008905F0004FA07F829EA08090097D1F8D6
:1012A0000C8008FA07F848EA0908C0F8088047687F
:1012B000B7430E79C6F300169E403E434660C668AB
:1012C0004FEA430804FA08F7BE4301978F6807FA0C
:1012D00008F73743C7604E68022E01D0122E13D193
:1012E000DE0800EB86060096366A5F07FF0E0CFAF2
:1012F00007F926EA0906D1F8109009FA07F949EA30
:101300000609009EC6F820900768019EB7430E7933
:1013100006F0030606FA08F63E4306604E68F6003D
:1013200056D5304E376E47F001073766366E23F0DC
:10133000030706F0010600962B4E3E44B146B66800
:101340009F074FEA17780CFA08F7BE43B0F1904FA9
:1013500005D0264FB84204D1012708E038E0002725
:1013600005E0234FB84201D1022700E0072707FA22
:1013700008F73743C9F80870DAF800605746D1F823
:10138000048096435FEAC83800D516433E60DBF818
:1013900000605F46D1F8048096435FEA883800D544
:1013A00016433E60DEF800607746D1F8048096432D
:1013B0005FEAC82800D516433E60094F0C373E68E7
:1013C000D1F8048096435FEA882800D516433E6032
:1013D0005B1C0A6832FA03F67FF44CAF00F00AB8DF
:1013E00000040140001002400000014000040048D9
:1013F000000800481CBCBDE8E08F0069084000D030
:10140000012070470AB18161704781627047000016
:1014100001488068704700006000002090F841207B
:10142000202A24D190F84020012A20D0012280F8DF
:101430004020242280F841200268136823F0010331
:1014400013600268136823F4805313600268136802
:101450000B43136001680A6842F001020A60202110
:1014600080F84110002180F84010084670470220A3
:10147000704790F84120202A22D190F84020012A7C
:101480001ED0012280F84020242280F841200268EA
:10149000136823F0010313600268136823F4706378
:1014A00043EA0121116001680A6842F001020A6002
:1014B000202180F84110002180F840100846704734
:1014C0000220704770B5040004D094F84100002554
:1014D00010B106E0012070BD84F84050204600F0B5
:1014E00099F9242084F841002068016821F0010165
:1014F00001606068216820F0706008612068816880
:1015000021F400418160E0680128A06807D040F420
:10151000044021688860E068022803D006E040F4B7
:101520000040F6E721684FF4006048602068416899
:10153000114A114341602068C16821F40041C16033
:10154000D4E904010843A16940EA01202168C86088
:10155000D4E907010843216808602068016841F068
:10156000010101606564202084F84100256384F84E
:101570004250002070BD0000008000022DE9FC47B1
:1015800000260446019690F841001F46924689467F
:1015900020287ED120688069C043000479D594F862
:1015A0004000012875D0012084F84000242084F8F0
:1015B000410066644FF02008E068012809D029F452
:1015C000544040F4205021684860FFF721FF054651
:1015D0000DE0314949EA010030490840F3E7781C41
:1015E00005D0FFF715FF401BB84219D8C7B12168D5
:1015F00088698969C0F34010C1F300110843EED037
:10160000206880693B46C043C0064FF000024FF09F
:1016100020012046009517D501F00CFB68BB09E0BE
:1016200084F8418054F8440F40F0200044F8040945
:10163000267022E02168C1F81C8084F8418084F87B
:101640004060002000F02CB801F0F4FAA8B921683D
:101650001020C8612168C1F81C800198504512D142
:101660002068416841F4804141603B4600222021CE
:101670002046009501F0DEFA10B10120E2E708E013
:101680002168C1F81C800198401C0190504593D3FB
:10169000C6E70220D6E7000000200002FF23000278
:1016A0000CBCBDE8F08700002DE9FF4F83B0044675
:1016B000DDE9108790F84100DDF848909A4693469E
:1016C000202874D15FEA080014D09FB194F840003C
:1016D00001286CD0012084F84000FFF799FE0646EF
:1016E000012200901923D103204601F0A3FA00281B
:1016F00071D103E04FF4007060646CE0222084F844
:101700004100402084F8420000256564C4F824802C
:1017100067856563CDE9009653465A46204604998D
:1017200001F040FA10B184F8405054E0618D354822
:10173000FF274FF080784FF0007AFF2904D92785E2
:101740003A464346009005E0618D2185009094F86B
:10175000282053462046049901F056FA4B460022B1
:1017600004212046009601F065FAA0BB2068406A7B
:10177000616A0870606A401C6062208D401E81B200
:101780002185608D401E6085608DD8B1D1B94B46F2
:10179000002280212046009601F04CFAD8B9608DD5
:1017A000FF2805D927853A464346009506E026E0FE
:1017B000608D2085009594F8282053462046049992
:1017C00001F022FA608D0028C8D1324649462046F1
:1017D00001F05CFA18B1012007B000F017B82168D9
:1017E0002020C86121684A68074B1A404A6084F883
:1017F000410084F8425084F840500020ECE7022079
:10180000EAE700000024008000E800FE30BCBDE8EC
:10181000C08F000010B586B0044614216846FEF75C
:101820000EFD1249206888421ED1114CE06C40F038
:101830000200E064E06C694600F002000590C02000
:1018400000901220019001200290032003900420B8
:1018500004900848FFF700FDA06D40F40010A0655B
:10186000A06D00F40010059006B010BD00540040BB
:1018700000100240000400480248816802781144C8
:10188000816070476000002010B50024032000F044
:1018900089F8002000F008F808B1012401E000F008
:1018A0003DF8204610BD000000B5014687B000227B
:1018B000192000F057F8192000F046F81348016E7F
:1018C00041F400610166006E05A900F40060069015
:1018D000684600F09BFA00F0CBFA0D490D4AB0FBC8
:1018E000F1F10D48491E0260416040F2E7320021EB
:1018F000C0E90321816000F0D8FD10B1012007B0DC
:1019000000BD054800F004FEF9E7000000100240A9
:1019100040420F00002C0140E8010020094808B5B2
:10192000016E41F001010166016E01F001010091BB
:10193000816D41F080518165806D00F08050009094
:1019400008BD000000100240002809DB00F01F0263
:10195000012191404009800000F1E020C0F8001111
:1019600070470000F0B40E4B1B680C46C3F3022313
:10197000C3F10705042D00D90425191D072901D23B
:10198000002300E0DB1E012606FA05F1491E214076
:1019900099409E40761E16403143F0BC02F066B876
:1019A0000CED00E0064900F0070208684FF6FF035F
:1019B000184040EA0220034A1043086070470000C4
:1019C0000CED00E00000FA051649B0F5007F08684C
:1019D000C0F3412009D0022805D0086820F4C06077
:1019E00040F480600860002070470128FBD0086840
:1019F00020F4C06040F4007008600B483222006898
:101A000050430A4AB0FBF2F0401C00E0401E4A6915
:101A1000520501D50028F9D148694005E3D50320D6
:101A200070470000007000406C00002040420F0032
:101A30000248006800F4C060704700000070004079
:101A40000248016841F480710160704700700040F5
:101A50000248016841F00401016070470010024033
:101A60002DE9F84F0446002700889C4D3E460005AE
:101A700015D5E06B60B1B0F5000F04D0B0F5400FA4
:101A80002BD001270AE0E86840F48030E86024E0C9
:101A90000021201D01F0C0FA07001ED03E4620683C
:101AA000800338D5A86D4FF00008C00009D4A86D98
:101AB00040F08050A865A86D4FF0010800F08050FC
:101AC0000090DFF81CA2DAF8001041F48071CAF827
:101AD0000010FFF79DFC814610E0D5F88800E16B0F
:101AE00020F440000843C5F88800D8E7FFF790FCD1
:101AF000A0EB0900022801D9032704E0DAF800006E
:101B0000C005F3D5EFB33E46B8F1000F03D0A86D82
:101B100020F08050A8652078C00707D0D5F888004D
:101B2000216A20F003000843C5F888002078800768
:101B300007D5D5F88800616A20F00C000843C5F885
:101B400088002078800607D5D5F88800A16A20F49F
:101B500040600843C5F888002088800507D5D5F87F
:101B60008800616B20F440200843C5F88800208875
:101B7000400509D5D5F88800A16B20F44010084332
:101B800000E02EE0C5F888002078400607D5D5F89B
:101B90008800E16A20F440500843C5F88800208896
:101BA000C00507D5D5F88800216B20F440300843E4
:101BB000C5F8880020884FF0006780044FF08068E7
:101BC0004ED5D5F88800216C20F040600843C5F858
:101BD0008800206CB8423BD1E86840F48010E8608F
:101BE0003EE0D5F8900010F4407014D0216D814291
:101BF00011D0D5F89000D5F8901020F4407041F441
:101C00008031C5F89010D5F8901021F48031C5F8D6
:101C10009010C5F89000C00711D0FFF7F9FB0746F8
:101C200041F2883907E000BFFFF7F2FBC11B4945CD
:101C300001D9032668E7D5F890008007F4D5D5F8D8
:101C40009000216D20F440700843C5F890005BE7D8
:101C5000404505D10121201D01F0DEF900B1064605
:101C60002068400317D5D5F88800616C20F04060EB
:101C70000843C5F88800606CB84204D1E86840F4B5
:101C80008010E86007E0404505D10121201D01F0EA
:101C9000C3F900B106462088400411D5D5F8880064
:101CA000A16C20F040500843C5F88800A06CB0F14A
:101CB000805F05D10221201D01F0AEF900B106467A
:101CC0002088000406D555F8880FE16C20F080408C
:101CD00008432860304600F005B8000000100240BC
:101CE0000070004018BCBDE8E08F00002DE9F0470F
:101CF0000F46050058D0404E306800F00700B8424B
:101D000009D2306820F0070038433060306800F0B6
:101D10000700B84248D12878384CC0072CD06868F2
:101D2000032811D0022812D0216898B14905002952
:101D30003ADAA16821F003010143A160FFF768FBD3
:101D4000804641F2883910E021688901EFE7216877
:101D50008903ECE78907EAE7FFF75AFBA0EB0801E4
:101D6000494502D90320BDE8F087A068696800F002
:101D70000C00B0EB810FEFD12878800705D5A06863
:101D8000A96820F0F0000843A060306800F0070068
:101D9000B8420BD9306820F0070038433060306813
:101DA00000F00700B84201D00120DCE728784007A6
:101DB00005D5A068E96820F4E0600843A0602878B1
:101DC000000706D5A068296920F4605040EAC100E8
:101DD000A06000F05FF8A168094AC1F30311515CEB
:101DE00001F01F01C8400749086007480068BDE8C6
:101DF000F047FFF759BD00000020024000100240EC
:101E0000084400086C000020640000200F220260DB
:101E10000C4A936803F003034360936803F0F003F4
:101E20008360936803F4E063C36092684FF4E063F7
:101E300003EAD20202610448006800F0070008606B
:101E4000704700000010024000200240054806498B
:101E500000688968054AC1F30221515C01F01F0145
:101E6000C84070476C000020001002404844000841
:101E70000548064900688968054AC1F3C221515CDA
:101E800001F01F01C84070476C00002000100240A4
:101E90004844000870B52549002318468A68CC6874
:101EA00012F00C0204F00306214C4FEA640509D03D
:101EB0000C2A05D0042A32D0082A00D1284670BD49
:101EC000012E10D10B681B0704D4D1F89430C3F352
:101ED000032302E00B68C3F30313164E56F82330B6
:101EE000DAB10C2AEBD1C86800F00300022818D040
:101EF000032818D01846CA68CB68C2F30212C3F38D
:101F000006234343521CB3FBF2F2C868C0F341609E
:101F1000401C4000B2FBF0F070BD184670BD20467A
:101F200070BD2046E7E72846E5E7000000100240C4
:101F30000024F400184400082DE9F84304006FD091
:101F4000FE4DA86800F00C06E86800F00307207852
:101F5000C00664D576B10C2E01D1012F0AD0A0693C
:101F6000002828687AD040F001002860FFF750FA76
:101F700080465DE02868800702D5A0690028DED091
:101F8000216A2868000703D5286800F0F00004E003
:101F9000D5F89400F02202EA1010814216D90846C2
:101FA00001F0D0F800283BD1286840F008002860F4
:101FB0002868216A20F0F000084328606868E16919
:101FC00020F47F4040EA0120686016E0286840F075
:101FD000080028602868216A20F0F0000843286083
:101FE0006868E16920F47F4040EA0120686026B912
:101FF000206A01F0A7F80028D5D1FFF74BFFA968A8
:10200000CF4AC1F30311515C01F01F01C840CD4913
:102010000860CD480068FFF747FC00287ED12EE01D
:10202000CAE000BFFFF7F4F9A0EB0800022876D859
:1020300028688007F6D5286840F0080028602868DE
:10204000216A20F0F000084328606868E16920F404
:102050007F4040EA0120686011E0FFE720F00100C6
:102060002860FFF7D5F9804606E000BFFFF7D0F9FA
:10207000A0EB08000228DAD828688007F6D4207878
:10208000C00740D0082E18D00C2E01D1032F14D039
:102090006068B0F5803F17D0B0F5A02F286817D042
:1020A00020F480302860286820F480202860606850
:1020B000E0B1FFF7ADF9804614E02868800322D52F
:1020C0006068002878D01EE0286840F48030EDE792
:1020D00040F480202860F7E7FFF79AF9A0EB0800AA
:1020E0006428A4D828688003F6D50CE0FFF790F99F
:1020F000804605E0FFF78CF9A0EB0800642896D82D
:1021000028688003F6D4207880073BD5042E11D0B0
:102110000C2E01D1022F0DD0E06801E0B6E1FFE006
:10212000002828681ED040F480702860FFF770F9FE
:1021300007460CE0286840050CD5E0680028C1D0AF
:1021400008E000BFFFF764F9C01B022893D8286895
:102150004005F7D56868217C20F0FE4040EA016028
:1021600068600FE020F480702860FFF751F907469F
:1021700005E000BFFFF74CF9C01B0228B1D8286862
:102180004005F7D42078000729D560690028D5F8E4
:10219000940012D040F00100C5F89400FFF738F920
:1021A000074604E0FFF734F9C01B022899D8D5F898
:1021B00094008007F6D512E02BE120F00100C5F86D
:1021C0009400FFF725F9074605E000BFFFF720F967
:1021D000C01B022885D8D5F894008007F6D4207853
:1021E000400766D5A86D0027C00008D4A86D40F050
:1021F0008050A865A86D012700F0805000905348DA
:102200000168C90512D40168814641F480710160FA
:10221000FFF7FEF8804605E0FFF7FAF8A0EB0800AC
:1022200002287DD8D9F80000C005F5D5A06801289E
:1022300016D00528D5F8900017D020F00100C5F879
:102240009000D5F8900020F0040000BFC5F8900081
:10225000A06841F28839C0B1FFF7DAF880460FE094
:10226000D5F8900040F00100F0E740F00400C5F818
:102270009000F5E7FFF7CCF8A0EB080149454FD8EF
:10228000D5F890008007F5D50EE0FFF7C1F880463D
:1022900006E000BFFFF7BCF8A0EB080149453FD8B6
:1022A000D5F890008007F5D41FB1A86D20F08050BC
:1022B000A8652078800628D5606A0028D5F898009F
:1022C00012D040F00100C5F89800FFF7A1F80746CA
:1022D00005E000BFFFF79CF8C01B022820D8D5F806
:1022E00098008007F6D510E020F00100C5F89800AE
:1022F000FFF78EF8074604E0FFF78AF8C01B0228B4
:102300000ED8D5F898008007F6D4A06AA8B10228A4
:1023100024D00C2E7DD0286820F08070286000E04A
:10232000B3E02868000103D4E86820F00300E86007
:10233000E86807490840E8600CE09FE000100240B0
:10234000084400086C000020640000200070004079
:10235000FFFFEEFEFFF75CF8044699E0E868E26AEA
:1023600000F00301914226D1216B00F070020901B7
:10237000103991421FD1626B00F4FE41B1EB022F84
:1023800019D194F8382000F07841B1EBC26F12D126
:10239000A18F00F4C00249084905A1F5001191423E
:1023A00009D194F8401000F0C06049084906A1F135
:1023B000007181424BD00C2E6FD0286840016CD444
:1023C000286820F080702860FFF722F8064604E0B5
:1023D000FFF71EF8801B022857D828688001F7D421
:1023E000F4E90B016FF00F0202EB01110843218A9F
:1023F0005204490802EB4151A26841EA0221084314
:10240000217D4FF07E42490802EB41610843217B68
:1024100000E042E040EAC160E968214A1140084317
:10242000E860286840F080702860E86840F08070BC
:10243000E860FEF7EDFF044605E000BFFEF7E8FFA9
:10244000001B022821D828688001F7D523E02868DE
:10245000800120D4286840F080702860E86840F04F
:102460008070E860FEF7D4FF044604E0FEF7D0FF7A
:10247000001B022809D828688001F7D50BE000BFAF
:10248000FEF7C6FF001B022802D90320BDE8F8832F
:1024900028688001F4D40020F8E70120F6E7000066
:1024A0008C809D0170477047704710B5040003D0C1
:1024B00094F83D0010B107E0012010BD002084F821
:1024C0003C00204600F022F8022084F83D00211D47
:1024D000206800F0F7FE012084F8480084F83E00F0
:1024E00084F83F0084F8400084F8410084F84200FA
:1024F00084F8430084F8440084F8450084F84600DA
:1025000084F8470084F83D00002010BD70470000AB
:1025100090F83D10012901D001207047022180F878
:102520003D100168CA6842F00102CA6000680B49A8
:10253000884205D0B0F1804F02D00949884207D1C6
:102540008168084A1140062906D0B1F5803F03D0C2
:10255000016841F00101016000207047002C01403A
:102560000040014007000100704770B50446006854
:1025700001694FF00005C943890715D4C168C943F3
:10258000890711D4E91E0161012020772068806944
:102590008007204602D0FFF7E7FF04E000F0A7F82D
:1025A000204600F0A5F8257720680169C94349074E
:1025B00017D4C168C943490713D46FF004010161FE
:1025C000022020772068806910F4407F204602D0E6
:1025D000FFF7CAFF04E000F08AF8204600F088F810
:1025E000257720680169C943090716D4C168C94322
:1025F000090712D46FF008010161042020772068D8
:10260000C0698007204602D0FFF7AEFF04E000F06B
:102610006EF8204600F06CF8257720680169C94300
:10262000C90617D4C168C943C90613D46FF0100195
:102630000161082020772068C06910F4407F20469F
:1026400002D0FFF791FF04E000F051F8204600F0BF
:102650004FF8257720680169C943C90708D1C168C7
:10266000C943C90704D1891E0161204600F042F820
:1026700020680169C943090609D4C168C94309062C
:1026800005D46FF0800101612046FFF70CFF206840
:102690000169C943C90509D4C168C943090605D4FC
:1026A0006FF4807101612046FFF7FCFE206801692C
:1026B000C943490609D4C168C943490605D46FF026
:1026C00040010161204600F01FF820680169C943FC
:1026D00089060BD4C168C943890607D46FF020016D
:1026E00001612046BDE87040FFF7DEBE70BD704757
:1026F0007047000000680349884201D1FFF7BCB869
:1027000070470000002C0140704770477047000080
:102710002DE9F04102680446D0691168936840F6DB
:102720000F0528424FF0000505D186067BD58E06A1
:1027300079D5216E88E04D4F03F001060F403743F5
:1027400071D0C70707D0CF0505D501271762E26F03
:1027500042F00102E267820708D5DA0706D027684F
:1027600002223A62E26F42F00402E267420708D5B1
:10277000DA0706D0236804221A62E26F42F00202EE
:10278000E26702070AD501F02002324306D023682F
:1027900008221A62E26F42F00802E267020509D5D8
:1027A0004A0107D523684FF400621A62E26F42F0D3
:1027B0002002E267E26F002A2ED0800605D5880647
:1027C00003D5216E09B120468847E06F21688968EA
:1027D000490602D410F0280F20D0204600F03CFF1C
:1027E00020688168490614D5816821F04001816024
:1027F000E06E70B11E498163E06EFEF7F4FC0028C4
:102800000AD0E06E816B00E02046BDE8F041084749
:1028100009E02046FFF77AFFBDE8F0812046FFF788
:1028200075FFE567F8E7C60209D55B0207D54FF4E7
:10283000801010622046BDE8F041FFF766BF030636
:1028400005D50B0603D5616E0029DDD1E4E740060E
:10285000E2D54806E0D51168204621F0400111601C
:1028600020216167656600F048F9D5E72001000482
:102870004536000810B5040002D0606F10B107E0C3
:10288000012010BD002084F87000204600F026F8DA
:10289000242060672068016821F001010160204662
:1028A00000F0EAFE0128ECD0606A10B1204600F08A
:1028B00039FE2068416821F49041416020688168B8
:1028C00021F02A0181602068016841F00101016066
:1028D0002046BDE8104000F089BE000010B586B06B
:1028E000044614216846FDF7AAFC1749206888426F
:1028F00028D11648016E41F480410166016E01F451
:1029000080410591C16C41F00101C164C06C694610
:1029100000F0010005904FF4C0600090022001908B
:102920000020029003200390072004904FF0904075
:10293000FEF792FC002211462520FFF713F8252010
:10294000FFF702F806B010BD003801400010024049
:102950002DE9F84F0446806F9A4616460D4620280A
:102960006BD1EDB1E6B194F87000012865D001207B
:1029700084F870004FF00008C4F87C802220A06723
:10298000FEF746FDA4F858608146A4F85A60A06896
:102990004FF48053FF21984208D122691AB11CE0FC
:1029A000012000F04CB840F2FF1116E07F2290B1F8
:1029B000B0F1805F14D0A4F85C8000BFB4F85C7004
:1029C000984201D1206990B12E46002584F870808C
:1029D00007F0FF0825E0266936B9A4F85C10EDE79A
:1029E000216909B13F21F8E7A4F85C20E6E7002659
:1029F000ECE74B46002220212046CDF800A000F055
:102A00002DFF08B10320CCE72068808C8EB100EA4E
:102A1000080006F8010B00BFB4F85A00401EA4F8E5
:102A20005A00B4F85A000028E3D12020A067002003
:102A3000B7E7384025F8020BEEE70220B1E718BCF3
:102A4000BDE8E08F2DE9F8430446406F1F46164667
:102A50000D4620284FD1CDB1C6B194F870000128A1
:102A600049D0012084F870004FF00008C4F87C8041
:102A700021206067FEF7CCFCA4F850608146A4F8E2
:102A80005260A068B0F5805F03D004E00120BDE88B
:102A9000F883206928B12E465FF0000584F8708025
:102AA00010E00026FAE78021204600F0D7FEB8B9F2
:102AB000C6B116F8010B21680885B4F85200401E13
:102AC000A4F85200B4F852004B464FF000020097B1
:102AD0000028E8D14FF04001204600F0BFFE30B1A1
:102AE0000320D4E735F8020BC0F30800E3E7202009
:102AF00060670020CBE70220C9E77047FEE7016866
:102B00008A69D243920701D400228A6200688169EF
:102B1000C943C90703D0816941F001018161704750
:102B20002DE9F0410446006890460E468069C04396
:102B3000C00633D40025202720688069C043800662
:102B400015D5701CF8D0FEF763FCA0EB0800B0426E
:102B500001D8002EF0D154F8440F40F0200044F882
:102B600004096770A57025700120BDE8F081216817
:102B70001020C8612068C7612046FFF7C0FF54F8E5
:102B8000440B4168064A11404160206840F004004F
:102B900044F820096777A5772577E5E70020E4E783
:102BA00000E800FE2DE9F84304461646DDE90897E3
:102BB00014489846DAB200900023204600F024F82A
:102BC0003A464946204600F087F8B8B9F5B2B8F160
:102BD000010F08D02168300A88623A4649462046EB
:102BE00000F07AF850B9206885624B4600224021F7
:102BF0002046009700F01EF8002800D00120BDE814
:102C0000F883000000200080F0B50568059C686826
:102C10004FF48066064FC1F3090106EA545641EAB3
:102C200002413E431943B043214308436860F0BD6D
:102C3000FF63FF032DE9F0411D4617460E4604468B
:102C4000DDF8188008E0681C06D0FEF7E1FBA0EB79
:102C50000800A8420BD855B12068806936EA000008
:102C600012D00020B842EED00020BDE8F08154F828
:102C7000440F40F0200044F8040920206070002038
:102C8000A07020700120F0E70120EBE770B5164638
:102C90000D4604460DE0324629462046FFF740FF28
:102CA00008B1012070BDFEF7B3FB801BA84207D816
:102CB00035B120688069C0438006ECD4002070BD27
:102CC00054F8440F40F0200044F8040920206070BC
:102CD0000020A0702070E4E770B516460D4604464B
:102CE0000FE0324629462046FFF71AFF08B10120BF
:102CF00070BD681C05D0FEF78BFB801BA84207D86F
:102D000035B120688069C0438007EAD4002070BDD7
:102D100054F8440F40F0200044F80409202060706B
:102D20000020A0702070E2E700EB8100006E00F050
:102D3000F84070478068C0F3C00070478068C0F3F7
:102D400080007047C06810F4406F01D000207047C9
:102D500001207047042303EAD15310B51844436996
:102D6000C1F3045107248C40A3438A4013434361B9
:102D700010BD00EB8100016E21F00041114301669E
:102D8000704700002DE9F04387B018216846FDF731
:102D900056FA504DDFF838810024C5E90084042636
:102DA0006E614FF00109AC60C5E903492C7685F8E6
:102DB00019900820E86185F82040AC62EC6285F843
:102DC00030406C6385F838402846FEF741F808B17A
:102DD00072B6FEE7404800900620CDE901047F204E
:102DE0000594CDE9030669463A48FDF735FE08B17A
:102DF00072B6FEE7394800900C20019069463548CC
:102E0000FDF72AFE08B172B6FEE7354800901220A1
:102E1000019069462F48FDF71FFE08B172B6FEE724
:102E2000304F1820CDE9007069462A48FDF714FE9E
:102E300008B172B6FEE72C4800904FF48070019004
:102E400069462448FDF708FE08B172B6FEE74FF464
:102E50008370CDE9007069461E48FDF7FDFD08B19D
:102E600072B6FEE7214800904FF4867001906946E3
:102E70001848FDF7F1FD08B172B6FEE71C48009056
:102E80004FF48970019069461248FDF7E5FD08B1DD
:102E900072B6FEE7C5E900846E61AC60C5E903491E
:102EA0002C7685F81990C5F81C9085F82040AC6206
:102EB000EC6285F830406C6385F838400548FDF7D2
:102EC000C7FF002801D072B6FEE707B0BDE8F08367
:102ED00000000450B80000200000214300106032C0
:102EE0000080F03E0002B025000180210004002A8D
:102EF0000008302EF0B587B014216846FDF79FF921
:102F00001E48C16C41F00401C164C16C01F00401B0
:102F10000591C16C41F00101C164C16C01F0010176
:102F20000591C16C41F00201C164C06C41F6071407
:102F300000F002004FF090460590002221463046F6
:102F4000FEF760FA0E4F002230213846FEF75AFA9B
:102F50000125CDE9004500240294694630460394DA
:102F6000FEF77AF930200090CDE9015469463846E1
:102F70000394FEF771F907B0F0BD000000100240A5
:102F800000040048134810B51149016040F614616F
:102F9000416000210122C0E90212016141618161A9
:102FA000C1610162FEF78EFA08B172B6FEE7002138
:102FB0000848FEF733FA08B172B6FEE7002105486B
:102FC000FEF757FA002801D072B6FEE710BD0000E8
:102FD000005400401C0100200C4810B50A49016053
:102FE0004FF416514160002181600C22C160C0E99C
:102FF00004128161C16101624162FFF73BFC00285C
:1030000001D072B6FEE710BD003801406801002013
:10301000FEE7FEE7704700002DE9F041444C05460D
:103020008846E0680026810728680DD0E16801F035
:103030000301814216D1A8B1E0686968C0F30210AB
:10304000401C88420ED120E0012804D0022805D07F
:10305000032807D108E02168890701E021684905B4
:10306000002907DB01265FE02168890302D421687B
:103070004903F5E7E1686A686FF00F0321F0730117
:1030800003EB021211430143E160206820F08060ED
:103090002060FEF7BDF9074605E000BFFEF7B8F96E
:1030A000C01B022837D820680001F7D4B8F1000F00
:1030B00018D0B8F1010F1DD0287D4FF07E41400897
:1030C00001EB4060A96840EA01202169194A1140DA
:1030D00008432061206840F080602060FEF798F986
:1030E00007461AE0A868297B000240EAC16021690E
:1030F000114AECE7288A1149400801EB4050A968C1
:1031000040EA012021690E4AE1E700BFFEF780F99D
:10311000C01B022801D9032606E020680001F5D56E
:103120002069A969084320613046BDE8F0810000AC
:1031300000100240FF80FFF9FF80FF070000E0FF62
:10314000FF809FFFF8B51C4D06460024A86DC00007
:1031500002D5FEF76DFC0DE0A86D40F08050A8652B
:10316000A86D00F080500090FEF762FCA96D21F080
:103170008051A965B0F5007F04D0802E07D94FF0AB
:1031800003040AE0802E08D9A02E01D804E001D162
:10319000022402E0702E00D101240848016821F0C9
:1031A000070121430160006800F00700A04201D040
:1031B0000120F8BD0020F8BD0010024000200240B0
:1031C0007047704730B5ABB0442115A8FDF737F80C
:1031D000142126A8FDF733F854216846FDF72FF88F
:1031E000FEF72EFC224850F8901F21F018010160D4
:1031F000142001251590002417956020CDE91C406E
:103200001B9515A81F94FEF797FE08B172B6FEE74E
:103210000F20CDE9260428942994002126A82A9479
:10322000FEF764FD08B172B6FEE744F2410000907B
:103230000894000712901020CDE902500720049056
:103240000B940220019505900690C00507906846F2
:10325000FEF706FC08B172B6FEE74FF40070FEF709
:10326000B3FB08B172B6FEE7FEF7F2FB2BB030BD40
:10327000001002400D48016841F4700101600C48E3
:10328000016841F001010160002181600268094B81
:103290001A4002608214C260026822F48022026036
:1032A00081610249C00380390860704788ED00E001
:1032B00000100240FFFFF6EA0148FFF756B9000090
:1032C000E801002070B50268164B4FF08046984226
:1032D00001D0B04203D122F070044A682243124C5C
:1032E000124D984205D0B04203D0A04201D0A8426E
:1032F00003D122F44076CA6832434E6922F080023C
:10330000324302608A68C2620A688262984203D0CD
:10331000A04201D0A84201D10969016301214161A4
:1033200070BD0000002C01400040014000440140FD
:10333000054841784FF0904009B1012200E0002299
:103340000421FEF75FB800000000002030B587B010
:10335000FDF742FB204CE069401CE0611F48FDF78F
:10336000DFFE64211D48FDF787FE1C48FDF76DFD5B
:10337000059014216846FCF762FF19A16846059A7A
:1033800000F060FB059821694FF09045884204D811
:1033900001212846FEF731F838B1A069401CA06130
:1033A0006169884203D9002206E0A069F8E7059820
:1033B00021698842F7D2012201212846FEF722F82E
:1033C000E069B0F5B46F02D10020E061A06103486C
:1033D000FDF7EAFE07B030BD00000020B800002075
:1033E0004C696768743A2025640D0A0010B50446DC
:1033F00086B00068FDF710FB1248FDF791FE6421CE
:103400001048FDF739FE0F48FDF71FFD009014210D
:1034100001A8FCF714FFA27A0BA101A8009B00F001
:1034200011FB0D4800998268914201D9012103E006
:10343000C268914201D2002101700248FDF7B4FE3A
:1034400006B010BDB80000204D6F6973742025646C
:103450003A2025640D0A000000000020044943685A
:103460000A78018902B101221846FDF7CBBF00009E
:103470000000002000B52DED028B89B04FF47A7268
:10348000022103A88DE8070001231122D0211D4845
:10349000FEF70AF99DF80D008009FCF7FFFF9FED8C
:1034A0001A1B53EC112BFCF784FF41EC180B9DF811
:1034B0000C00FCF7F3FF53EC182BFCF7CBFEFDF7E9
:1034C0000DF808EE100A18EE100AFCF7F4FF41ECB4
:1034D000100B0FA153EC102B04A800F0B3FA104806
:1034E00090ED010AB8EE400AB4EEC08AF1EE10FA8F
:1034F00001DD012100E00021417009B0BDEC028B2B
:1035000000BD00001C010020000000000000D03FB2
:1035100054656D703A20252E32660D0A00000000B9
:103520000000002090F82410C90706D001684A68FE
:10353000836A22F400321A434A6090F82410890703
:1035400006D501684A68C36A22F480321A434A6089
:1035500090F82410490706D501684A68036B22F4E5
:1035600080221A434A6090F82410090706D50168A2
:103570004A68436B22F400421A434A6090F82410D0
:10358000C90606D501688A68836B22F480521A4303
:103590008A6090F82410890606D501688A68C36B92
:1035A00022F400521A438A6090F82410490611D57B
:1035B00001684A68036C22F480121A434A60016C65
:1035C000B1F5801F06D101684A68436C22F4C0023D
:1035D0001A434A6090F82410090606D501684A6823
:1035E000806C22F4002202434A607047F8B500263E
:1035F0000446C667FDF70CFF0546206800686FF0BB
:103600007E47000708D52B4600224FF400112046C4
:10361000009700F023F960B92068006840070AD5D8
:103620002B4600224FF480012046009700F016F947
:1036300008B10320F8BD20206067A06784F870609F
:103640000020F8BD10B5806A0021A0F85A10A0F83B
:103650005210FFF75BF810BD01680A6822F49072FF
:103660000A6001688A6822F001028A60202181676D
:1036700000210166704700002DE9F0410446016811
:1036800080682269E3691043626900251A43104388
:103690006B4F0A686B4B1A4002430A60206841680E
:1036A000E26821F44051114341602168A069B942A8
:1036B00001D0226A10438A6822F4306202438A6091
:1036C0006149236861488B420DD1D0F8880010F021
:1036D000030006D0012838D0022834D0032821D195
:1036E00035E001211FE05A498B420BD1D0F8880008
:1036F00010F00C0025D0042827D0082823D00C284F
:1037000010D124E0BB420DD1D0F8880010F4406005
:1037100017D0B0F5806F18D0B0F5006F13D0B0F5AA
:10372000406F14D010214B4800264FF40042BB429A
:103730002FD171B1022912D004290DD0082973D1DB
:1037400025E00021EFE70221EDE70421EBE7082166
:10375000E9E7FEF77BFB01E0FEF79CFBF0B3626854
:1037600002EB420181425FD8B0EB023F5CD8010E10
:10377000000273084FEA3207C01959410023FCF7D1
:1037800023FD354AA0F54071914251D94CE01046D5
:10379000E5E7E3694FF6EF77934229D1092943D250
:1037A000DFE801F005080E420B4242422400FEF71A
:1037B0004DFB04E0FEF75CFB01E0FEF76BFB68B13C
:1037C0004100606801EB5001B1FBF0F080B2A0F164
:1037D0001001B94228D84FF6F07100E02AE001400C
:1037E000C0F3420001432068C16023E01046E7E7D0
:1037F000092919D2DFE801F005080E180B1818186E
:103800001A00FEF723FB04E0FEF732FB01E0FEF7AF
:1038100041FB78B1616800EB5100B0FBF1F080B280
:10382000A0F11001B94203D9012503E01046F1E7E8
:103830002168C860266628466666BDE8F0810000FB
:1038400000800040F369FFEF0038014000100240A3
:10385000004400400024F400FFFC0F002DE9F04775
:103860009A4617460E4604464FF000094FF02008CE
:10387000089D39E0681C37D0FDF7CAFDA0EB0A00AF
:10388000A84222D80DB32068016849072CD5C06929
:10389000C043000528D421684FF400600862206806
:1038A000016821F4D07101602068816821F0010174
:1038B0008160C4F87480C4F87880C4F87C8000BF4C
:1038C00084F870900320BDE8F0872068016821F437
:1038D000D07101602068816821F001018160C4F825
:1038E0007480C4F87880EBE72068C06936EA00008D
:1038F00004D00020B842BDD00020E4E70120F9E761
:103900007CB54FF47A763346012243494348FFF7AA
:103910001FF8002862D14249012008703E48007813
:103920008DF800009DF800003E493F4A3F4C404B57
:10393000542823D010DC492841D006DC412835D05A
:10394000442830D0452849D11BE04C2832D04D289E
:103950001BD04F2842D11BE0364D6C2843D006DCEB
:10396000582819D05A281AD0642837D146E06D2833
:1039700029D0742821D0762830D14AE00868401C2C
:1039800001E00868401E086028E01068401C01E063
:103990001068401E106021E02868401C01E0286883
:1039A000401E28601AE02068401C01E02068401E8C
:1039B000206013E01868401C18600A6804E018686A
:1039C000401E18600AE012681BA1684600F03AF831
:1039D0003346052269461148FFF734F8BDE87C40BC
:1039E0000E48FEF795BE14A168461A6800F02AF842
:1039F0003346052269460948FFF724F80EA16846B8
:103A0000226800F01FF83346052269460348FFF795
:103A100019F82A68D8E700005C000020680100203F
:103A20005D0000200400002008000020100000209D
:103A3000140000200C000020253035640000000038
:103A4000FEE700000FB4084B10B504A902AA0398C2
:103A500000F0F2F8044602A9002000F073FC2046B2
:103A600010BC5DF814FB0000454300080907090E6F
:103A7000002804DB00F1E02080F80014704700F01B
:103A80000F0000F1E02080F8141D704702E008C824
:103A9000121F08C1002AFAD170477047002001E0C8
:103AA00001C1121F002AFBD1704700002DE9FF5F02
:103AB00082B00021DDE90430020DDDF840B003439F
:103AC00018D044F61050A2F2FF3242431514119858
:103AD00001281FD0A5EB0B00401C5FEA000A4FF045
:103AE00000064E4FDFF83891B046504615D5CAF162
:103AF000000413E0119801244AA3012801D16FEAC0
:103B00000B010298119AC0E90031C0E9024206B0E7
:103B100000F08EB8CBF10000DFE704460021404AF8
:103B2000491842EB0450CDE9001012E0E00707D03D
:103B300032463B4640464946FCF73BFC80468946B8
:103B400032463B4610461946FCF733FC06460F4604
:103B50006410002CEAD1DDE90401DDE90023BAF1AB
:103B6000000F06DAFCF725FC42464B46FCF721FC29
:103B700005E0FCF7AAFD42464B46FCF7A6FD0446CD
:103B80000E460022284BFCF727FE03D84FF0FF30EB
:103B9000014607E00022254B20463146FCF75AFB40
:103BA000FCF702FE102409E0002C0ADB0A220023A5
:103BB000FCF70AFB039B30321A55641E50EA0102DF
:103BC000F2D1641C039AC4F111031444119A012A1E
:103BD00003D0012208430DD10AE0084304D000209D
:103BE0004FF0110B119072E7A3EB0B056D1E0DE06A
:103BF0005B4504DD4FF0000205F1010504E003DA46
:103C00004FF00002A5F10105002AECD002981199AD
:103C1000C0E90231C0E9004579E700000000144026
:103C20000000F03F300000000000F0430000E03FE3
:103C300030BCBDE8C09F00002DE9FF4F95B09A460B
:103C4000884606460025EEE1252877D10024274640
:103C5000F94A0121039400E0044316F8013F203B98
:103C600001FA03F01042F7D130782A2811D06FF012
:103C70002F033078A0F13002092A16D8039A44F0B5
:103C8000020402EB820203EB42021044761C039012
:103C9000EFE758F8042B0392002A03DA504244F469
:103CA0000054039044F00204761C30782E2816D17C
:103CB00016F8010F44F004042A280DD06FF02F02EB
:103CC0003078A0F13003092B09D807EB870302EB0A
:103CD0004303C718761CF3E758F8047B761C30784A
:103CE0006C280FD006DC4C2817D068280DD06A2825
:103CF00014D104E0742810D07A280FD10DE044F4D8
:103D000000140AE044F4801401E044F44014727892
:103D1000824202D104F58014761C761C3078662825
:103D20000BD013DC582877D009DC002875D0452843
:103D3000F6D04628F4D047281AD193E118E063283A
:103D400035D0642879D0652812D18BE1702873D0E2
:103D500008DC6728F1D069286FD06E280DD06F2855
:103D600006D1ACE073282CD0752874D0782853D0B5
:103D70005246179990476D1C54E1C4F30250022833
:103D800009D003280DD0D8F8001004280DD00D60FC
:103D900008F1040846E1D8F80010EA17C1E900521A
:103DA000F6E7D8F800100D80F2E70D70F0E718F88C
:103DB000041B8DF8001000208DF80100EB46012057
:103DC00003E058F804BB4FF0FF3061074FF00001EB
:103DD00002D40DE009F101018946B9420FDA8145AB
:103DE000F8DB1BF809100029F4D108E009F1010102
:103DF00089468142FADB1BF809100029F6D10398A5
:103E00005346A0EB090721463846179A00F083FA7B
:103E1000284400EB090507E044E008E10DE01BF849
:103E2000010B524617999047B9F10109F7D2534651
:103E300021463846179AF2E039E00A21C4F30252CB
:103E40004FF0000B0091022A06D058F8040BC1175E
:103E5000032A09D00AE023E008F1070020F0070256
:103E6000F2E80201904605E000B2C117042A01D130
:103E700040B2C117002906DA0A460021404261EB30
:103E800002012D2202E0220504D52B228DF8042008
:103E9000012203E0E20701D02022F7E7914657E034
:103EA0000A2100E010214FF0000B00910BE01021DF
:103EB0004FF0000B44F004040827009103E00820B1
:103EC0004FF0000B0090C4F30252022A05D058F8BC
:103ED000040B0021032A08D008E008F1070020F0B5
:103EE0000702F2E80201904603E080B2042A00D102
:103EF000C0B24FF0000922072AD53278702A07D0C5
:103F0000DDF800C08CF0100C5CEA0B0C05D00EE064
:103F100040228DF80420012208E050EA010306D077
:103F200030238DF804308DF8052002229146009B45
:103F300083F0080353EA0B030AD150EA010201D1CE
:103F4000620705D530228DF804204FF001097F1E4D
:103F50003278582A04D039A20C920CAA02920BE0B3
:103F60003BA2F9E75B46009AFCF72EF90C9B9B5CA1
:103F7000029A521E0292137050EA0102F2D1029884
:103F800004A9081A00F1200B600702D524F480343C
:103F900000E001275F4502DDA7EB0B0000E00020F9
:103FA00000EB0B01009003984944401A0390E00392
:103FB00006D453462146179A039800F0ACF90544FD
:103FC000002706E001A85246C05D179990476D1C76
:103FD0007F1C4F45F6DBE0030CD553462146179A6C
:103FE000039800F098F9054404E0302052461799F0
:103FF00090476D1C0099481E00900029F5DC08E0F0
:104000000298029952460078491C029117999047EC
:104010006D1CBBF10001ABF1010BF1DC5BE100F0C9
:1040200068F90544761C307800287FF40DAE19B08D
:10403000284600F05BB90000092801003031323316
:1040400034353637383961626364656600000000D4
:1040500030313233343536373839414243444546BE
:1040600000000000600700D4062708F1070020F0D8
:104070000700F0E80223804603F0004C5FEA0C00E2
:1040800001D097A009E0200501D596A005E0E00742
:1040900001D095A001E0AFF24C001390307823F0EE
:1040A000004365280CD006DC452809D046281DD0E1
:1040B00047287FD13BE0662818D067287AD136E0C0
:1040C0000021112F01DB112000E0781CCDE9000157
:1040D00004A90CA8FFF7EAFCDDE90D010C9A4FF0EA
:1040E000000B07F10109109200914EE04FF00040E3
:1040F0000097CDE9011004A90CA8FFF7D7FCDDE972
:104100000D020C9B0F994FF0000B914610930092FB
:1041100011B9791C00EB0109B7EB090003D4C0F118
:10412000FF3B07F10109A9EB0700019042E0012FD5
:1041300000DA01270021112F01DD112000E03846AF
:10414000CDE9000104A90CA8FFF7B0FCDDE90D01E1
:104150000C9A00914FF0000BB946109221070FD432
:10416000009A4A4503DA914601E0A9F10109B9F143
:10417000010F05DD109AA9F10101515C3029F4D03D
:10418000B84202DA10F1040F03DA0121CDE901107F
:1041900010E0002803DC8344A9EB000102E0411C8D
:1041A000494500DD8946A0EB0B00401C01904FF013
:1041B00000400290200705D40198484502DB4FF0EB
:1041C000FF30019000208DF84B0002980DF14B0755
:1041D000B0F1004F25D002200C902B200D900298BA
:1041E00000280CDA404202902D200D9007E00A21B1
:1041F0000298FCF78FF93031029007F8011D0C99F5
:10420000481E0C900029F2DC02980028EFD1791E9C
:104210000D980870307800F0200040F0450007F855
:10422000020D11A8C01BC01D02901398007800B1A8
:10423000012000EB0901019801EBE07102980144B3
:104240000398401A401E0390E00306D453462146CB
:10425000179A039800F05FF805441398007818B196
:104260005246179990476D1CE00323D553462146CB
:10427000179A039800F04FF805441BE0BBF1000FBC
:1042800007DB0098584504DD1098179910F80B00CB
:1042900001E0179930205246904701980BF1010B2D
:1042A000401E05F10105019004D12E2052461799B8
:1042B00090476D1CB9F10001A9F10109DEDC05E0B0
:1042C00017F8010B5246179990476D1C0299481E2A
:1042D00002900029F4DC53462146179A03989EE683
:1042E0002D0000002B0000002000000030BCBDE8C5
:1042F000C08F2DE9F041044600251E46174688046C
:1043000004D405E039462020B0476D1C641EF9D561
:104310002846BDE8F0812DE9F041044600251E46FF
:104320009046C80301D5302700E02027880404D533
:1043300005E041463846B0476D1C641EF9D5284655
:10434000BDE8F0810A68531C0B601070704710B50F
:10435000029C026004814360817210BD08B5FDF7C4
:1043600093FAFEF72FFFFEF7C5FDFEF735FEFEF7C9
:1043700009FEFEF707FD22480068016841F02001B0
:1043800001601F484FF0FF330A22D0214C38FDF75F
:10439000F5F81C4E1A4D0024A6F11807A6F13008B6
:1043A000B5F1F80536F81400009004EB440057F816
:1043B000243058F8242005EB80002146FFF7C7FF82
:1043C000641CE4B2062CEDD34FF47A77FFF752F871
:1043D0005FF0000404EB440005EB80063046FFF775
:1043E00005F83046FFF73AF8641CE4B2062CF1D326
:1043F000FEF7ACFFFEF79CFF3846FCF71BFFE5E736
:1044000068010020500000200000000000000000B3
:104410000102030406070809A0860100400D0300FD
:10442000801A060000350C0040420F0080841E00F8
:1044300000093D0000127A000024F40000366E01ED
:104440000048E801006CDC020000000001020304E7
:104450007044000800000020700000008C3A000842
:10446000E044000870000020C80500009C3A0008E5
:10447000000000001A000000AC0D0000B80B0000A6
:10448000E8030000580200000000000000000000E7
:10449000000021430002B0250004002A0080F03E05
:1044A0000008302E00018021000000480000004874
:1044B00000000048000000480004004800040048D4
:1044C00002000010000800012000100000000000A1
:1044D00001000000100000000000000000093D0085
:040000050800018D61
:00000001FF
